{
  "_format": "hh-sol-artifact-1",
  "contractName": "BioPassportVoting",
  "sourceName": "contracts/voting/BioPassportVoting.sol",
  "abi": [
    {
      "inputs": [],
      "name": "FailedToCallVerifyProof",
      "type": "error"
    },
    {
      "inputs": [
        {
          "internalType": "uint256[]",
          "name": "pubSignals",
          "type": "uint256[]"
        },
        {
          "components": [
            {
              "internalType": "uint256[2]",
              "name": "a",
              "type": "uint256[2]"
            },
            {
              "internalType": "uint256[2][2]",
              "name": "b",
              "type": "uint256[2][2]"
            },
            {
              "internalType": "uint256[2]",
              "name": "c",
              "type": "uint256[2]"
            }
          ],
          "internalType": "struct AQueryProofExecutor.ProofPoints",
          "name": "zkPoints",
          "type": "tuple"
        }
      ],
      "name": "InvalidCircomProof",
      "type": "error"
    },
    {
      "inputs": [
        {
          "internalType": "bytes32[]",
          "name": "pubSignals",
          "type": "bytes32[]"
        },
        {
          "internalType": "bytes",
          "name": "zkPoints",
          "type": "bytes"
        }
      ],
      "name": "InvalidNoirProof",
      "type": "error"
    },
    {
      "inputs": [
        {
          "internalType": "address",
          "name": "registrationSMT",
          "type": "address"
        },
        {
          "internalType": "bytes32",
          "name": "registrationRoot",
          "type": "bytes32"
        }
      ],
      "name": "InvalidRegistrationRoot",
      "type": "error"
    },
    {
      "inputs": [
        {
          "internalType": "uint256[]",
          "name": "pubSignals_",
          "type": "uint256[]"
        }
      ],
      "name": "InvalidZKProof",
      "type": "error"
    },
    {
      "anonymous": false,
      "inputs": [
        {
          "indexed": false,
          "internalType": "address",
          "name": "previousAdmin",
          "type": "address"
        },
        {
          "indexed": false,
          "internalType": "address",
          "name": "newAdmin",
          "type": "address"
        }
      ],
      "name": "AdminChanged",
      "type": "event"
    },
    {
      "anonymous": false,
      "inputs": [
        {
          "indexed": true,
          "internalType": "address",
          "name": "beacon",
          "type": "address"
        }
      ],
      "name": "BeaconUpgraded",
      "type": "event"
    },
    {
      "anonymous": false,
      "inputs": [
        {
          "indexed": false,
          "internalType": "uint8",
          "name": "version",
          "type": "uint8"
        }
      ],
      "name": "Initialized",
      "type": "event"
    },
    {
      "anonymous": false,
      "inputs": [
        {
          "indexed": true,
          "internalType": "address",
          "name": "previousOwner",
          "type": "address"
        },
        {
          "indexed": true,
          "internalType": "address",
          "name": "newOwner",
          "type": "address"
        }
      ],
      "name": "OwnershipTransferred",
      "type": "event"
    },
    {
      "anonymous": false,
      "inputs": [
        {
          "indexed": true,
          "internalType": "address",
          "name": "implementation",
          "type": "address"
        }
      ],
      "name": "Upgraded",
      "type": "event"
    },
    {
      "inputs": [],
      "name": "IDENTITY_LIMIT",
      "outputs": [
        {
          "internalType": "uint256",
          "name": "",
          "type": "uint256"
        }
      ],
      "stateMutability": "view",
      "type": "function"
    },
    {
      "inputs": [
        {
          "internalType": "address",
          "name": "registrationSMT_",
          "type": "address"
        },
        {
          "internalType": "address",
          "name": "proposalsState_",
          "type": "address"
        },
        {
          "internalType": "address",
          "name": "votingVerifier_",
          "type": "address"
        }
      ],
      "name": "__BioPassportVoting_init",
      "outputs": [],
      "stateMutability": "nonpayable",
      "type": "function"
    },
    {
      "inputs": [
        {
          "internalType": "bytes32",
          "name": "registrationRoot_",
          "type": "bytes32"
        },
        {
          "internalType": "uint256",
          "name": "currentDate_",
          "type": "uint256"
        },
        {
          "internalType": "bytes",
          "name": "userPayload_",
          "type": "bytes"
        }
      ],
      "name": "_afterVerify",
      "outputs": [],
      "stateMutability": "nonpayable",
      "type": "function"
    },
    {
      "inputs": [
        {
          "internalType": "bytes32",
          "name": "registrationRoot_",
          "type": "bytes32"
        },
        {
          "internalType": "uint256",
          "name": "currentDate_",
          "type": "uint256"
        },
        {
          "internalType": "bytes",
          "name": "userPayload_",
          "type": "bytes"
        }
      ],
      "name": "_beforeVerify",
      "outputs": [],
      "stateMutability": "nonpayable",
      "type": "function"
    },
    {
      "inputs": [
        {
          "internalType": "bytes32",
          "name": "registrationRoot_",
          "type": "bytes32"
        },
        {
          "internalType": "uint256",
          "name": "currentDate_",
          "type": "uint256"
        },
        {
          "internalType": "bytes",
          "name": "userPayload_",
          "type": "bytes"
        }
      ],
      "name": "_buildPublicSignals",
      "outputs": [
        {
          "internalType": "uint256",
          "name": "",
          "type": "uint256"
        }
      ],
      "stateMutability": "nonpayable",
      "type": "function"
    },
    {
      "inputs": [
        {
          "internalType": "bytes32",
          "name": "registrationRoot_",
          "type": "bytes32"
        },
        {
          "internalType": "uint256",
          "name": "currentDate_",
          "type": "uint256"
        },
        {
          "internalType": "bytes",
          "name": "userPayload_",
          "type": "bytes"
        },
        {
          "components": [
            {
              "internalType": "uint256[2]",
              "name": "a",
              "type": "uint256[2]"
            },
            {
              "internalType": "uint256[2][2]",
              "name": "b",
              "type": "uint256[2][2]"
            },
            {
              "internalType": "uint256[2]",
              "name": "c",
              "type": "uint256[2]"
            }
          ],
          "internalType": "struct AQueryProofExecutor.ProofPoints",
          "name": "zkPoints_",
          "type": "tuple"
        }
      ],
      "name": "execute",
      "outputs": [],
      "stateMutability": "nonpayable",
      "type": "function"
    },
    {
      "inputs": [
        {
          "internalType": "bytes32",
          "name": "registrationRoot_",
          "type": "bytes32"
        },
        {
          "internalType": "uint256",
          "name": "currentDate_",
          "type": "uint256"
        },
        {
          "internalType": "bytes",
          "name": "userPayload_",
          "type": "bytes"
        },
        {
          "internalType": "bytes",
          "name": "zkPoints_",
          "type": "bytes"
        }
      ],
      "name": "executeNoir",
      "outputs": [],
      "stateMutability": "nonpayable",
      "type": "function"
    },
    {
      "inputs": [],
      "name": "getRegistrationSMT",
      "outputs": [
        {
          "internalType": "address",
          "name": "",
          "type": "address"
        }
      ],
      "stateMutability": "view",
      "type": "function"
    },
    {
      "inputs": [],
      "name": "getVerifier",
      "outputs": [
        {
          "internalType": "address",
          "name": "",
          "type": "address"
        }
      ],
      "stateMutability": "view",
      "type": "function"
    },
    {
      "inputs": [],
      "name": "implementation",
      "outputs": [
        {
          "internalType": "address",
          "name": "",
          "type": "address"
        }
      ],
      "stateMutability": "view",
      "type": "function"
    },
    {
      "inputs": [],
      "name": "owner",
      "outputs": [
        {
          "internalType": "address",
          "name": "",
          "type": "address"
        }
      ],
      "stateMutability": "view",
      "type": "function"
    },
    {
      "inputs": [],
      "name": "proposalsState",
      "outputs": [
        {
          "internalType": "address",
          "name": "",
          "type": "address"
        }
      ],
      "stateMutability": "view",
      "type": "function"
    },
    {
      "inputs": [],
      "name": "proxiableUUID",
      "outputs": [
        {
          "internalType": "bytes32",
          "name": "",
          "type": "bytes32"
        }
      ],
      "stateMutability": "view",
      "type": "function"
    },
    {
      "inputs": [],
      "name": "renounceOwnership",
      "outputs": [],
      "stateMutability": "nonpayable",
      "type": "function"
    },
    {
      "inputs": [
        {
          "internalType": "address",
          "name": "newOwner",
          "type": "address"
        }
      ],
      "name": "transferOwnership",
      "outputs": [],
      "stateMutability": "nonpayable",
      "type": "function"
    },
    {
      "inputs": [
        {
          "internalType": "address",
          "name": "newImplementation",
          "type": "address"
        }
      ],
      "name": "upgradeTo",
      "outputs": [],
      "stateMutability": "nonpayable",
      "type": "function"
    },
    {
      "inputs": [
        {
          "internalType": "address",
          "name": "newImplementation",
          "type": "address"
        },
        {
          "internalType": "bytes",
          "name": "data",
          "type": "bytes"
        }
      ],
      "name": "upgradeToAndCall",
      "outputs": [],
      "stateMutability": "payable",
      "type": "function"
    }
  ],
  "bytecode": "0x60a060405230608052348015601357600080fd5b5060805161251f61004b600039600081816103340152818161037d015281816104050152818161044501526104c1015261251f6000f3fe6080604052600436106100fe5760003560e01c8063715018a611610095578063b6b8038c11610064578063b6b8038c1461028a578063dd29625a146102aa578063e4ab0833146102ca578063e73f3f11146102ea578063f2fde38b1461030a57600080fd5b8063715018a61461022a578063796164c01461023f5780637995c0f3146102545780638da5cb5b1461026c57600080fd5b806352d1902d116100d157806352d1902d146101b25780635c60da1b146101d5578063687fbf10146101ea5780636effdd9f1461020a57600080fd5b80633659cfe6146101035780633af4e4071461012557806346657fe9146101625780634f1ef2861461019f575b600080fd5b34801561010f57600080fd5b5061012361011e3660046117ee565b61032a565b005b34801561013157600080fd5b50606554610145906001600160a01b031681565b6040516001600160a01b0390911681526020015b60405180910390f35b34801561016e57600080fd5b507f3844f6f56a171c93056bdfb3ce2525778ef493f53ef90b0283983867a69d2129546001600160a01b0316610145565b6101236101ad36600461193b565b6103fb565b3480156101be57600080fd5b506101c76104b4565b604051908152602001610159565b3480156101e157600080fd5b50610145610567565b3480156101f657600080fd5b5061012361020536600461198a565b610576565b34801561021657600080fd5b506101236102253660046119d9565b610605565b34801561023657600080fd5b50610123610702565b34801561024b57600080fd5b50610145610716565b34801561026057600080fd5b506101c763ffffffff81565b34801561027857600080fd5b506033546001600160a01b0316610145565b34801561029657600080fd5b506101236102a5366004611a53565b610737565b3480156102b657600080fd5b506101c76102c536600461198a565b61084e565b3480156102d657600080fd5b506101236102e5366004611af0565b610a59565b3480156102f657600080fd5b5061012361030536600461198a565b610abc565b34801561031657600080fd5b506101236103253660046117ee565b610b55565b6001600160a01b037f000000000000000000000000000000000000000000000000000000000000000016300361037b5760405162461bcd60e51b815260040161037290611bdf565b60405180910390fd5b7f00000000000000000000000000000000000000000000000000000000000000006001600160a01b03166103ad610bcb565b6001600160a01b0316146103d35760405162461bcd60e51b815260040161037290611c2b565b6103dc81610be1565b604080516000808252602082019092526103f891839190610be9565b50565b6001600160a01b037f00000000000000000000000000000000000000000000000000000000000000001630036104435760405162461bcd60e51b815260040161037290611bdf565b7f00000000000000000000000000000000000000000000000000000000000000006001600160a01b0316610475610bcb565b6001600160a01b03161461049b5760405162461bcd60e51b815260040161037290611c2b565b6104a482610be1565b6104b082826001610be9565b5050565b6000306001600160a01b037f000000000000000000000000000000000000000000000000000000000000000016146105545760405162461bcd60e51b815260206004820152603860248201527f555550535570677261646561626c653a206d757374206e6f742062652063616c60448201527f6c6564207468726f7567682064656c656761746563616c6c00000000000000006064820152608401610372565b506000805160206124a383398151915290565b6000610571610bcb565b905090565b60008060008380602001905181019061058f9190611d02565b606554815160405163e1349bd760e01b81529497509295509093506001600160a01b03169163e1349bd7916105cb918791908790600401611dc3565b600060405180830381600087803b1580156105e557600080fd5b505af11580156105f9573d6000803e3d6000fd5b50505050505050505050565b610610848484610abc565b600061061d85858561084e565b90506106298186610d59565b7f3844f6f56a171c93056bdfb3ce2525778ef493f53ef90b0283983867a69d212954604051633a94343960e21b81528291600080516020612483833981519152916001600160a01b039091169063ea50d0e49061068c9087908690600401611e3b565b602060405180830381865afa1580156106a9573d6000803e3d6000fd5b505050506040513d601f19601f820116820180604052508101906106cd9190611e60565b6106ee57818460405163221d53ef60e11b8152600401610372929190611e82565b6106f9878787610576565b50505050505050565b61070a610e14565b6107146000610e6e565b565b60006000805160206124838339815191525b546001600160a01b0316919050565b600054610100900460ff16158080156107575750600054600160ff909116105b806107715750303b158015610771575060005460ff166001145b6107d45760405162461bcd60e51b815260206004820152602e60248201527f496e697469616c697a61626c653a20636f6e747261637420697320616c72656160448201526d191e481a5b9a5d1a585b1a5e995960921b6064820152608401610372565b6000805460ff1916600117905580156107f7576000805461ff0019166101001790555b610802848484610ec0565b8015610848576000805461ff0019169055604051600181527f7f26b83ff96e1f2b6a682f133852f6798a09c465da95921460cefb38474024989060200160405180910390a15b50505050565b600080600080848060200190518101906108689190611d02565b6065546040516331e181c560e01b81526004810185905293965091945092506000916001600160a01b03909116906331e181c590602401602060405180830381865afa1580156108bc573d6000803e3d6000fd5b505050506040513d601f19601f820116820180604052508101906108e09190611ea7565b905060006108ed85610f1d565b905060006108f9610716565b6001600160a01b031663cffe96766040518163ffffffff1660e01b8152600401602060405180830381865afa158015610936573d6000803e3d6000fd5b505050506040513d601f19601f8201168201806040525081019061095a9190611ea7565b82604001516109699190611ed6565b604085015190915063ffffffff9015610989575050604083015160608201515b8251855160009161099991611081565b90506109e285886040516020016109b09190611ee9565b60408051808303601f1901815291905280516020909101206101408401919091526001600160f81b0316610160830152565b6080840151610100820152602086015160e082015260006101e082015261020081018390526000610220820152610240810182905260a084015160c085015161026083019190915261028082015260e08401516102a0820152653030303030306102c08201529750505050505050505b9392505050565b610a64848484610abc565b6000610a7185858561084e565b9050610a7d8186610d59565b80610a888382611101565b610aa957808360405163717a17d360e11b8152600401610372929190611f4d565b610ab4868686610576565b505050505050565b600080600083806020019051810190610ad59190611d02565b9250925092506000610ae684610f1d565b9050610afa8160200151836020015161126d565b6106f95760405162461bcd60e51b815260206004820152602660248201527f566f74696e673a20636974697a656e73686970206973206e6f742077686974656044820152651b1a5cdd195960d21b6064820152608401610372565b610b5d610e14565b6001600160a01b038116610bc25760405162461bcd60e51b815260206004820152602660248201527f4f776e61626c653a206e6577206f776e657220697320746865207a65726f206160448201526564647265737360d01b6064820152608401610372565b6103f881610e6e565b60006000805160206124a3833981519152610728565b6103f8610e14565b7f4910fdfa16fed3260ed0e7147f7cc6da11a60208b5b9406d12a635614ffd91435460ff1615610c2157610c1c836112c8565b505050565b826001600160a01b03166352d1902d6040518163ffffffff1660e01b8152600401602060405180830381865afa925050508015610c7b575060408051601f3d908101601f19168201909252610c7891810190611ea7565b60015b610cde5760405162461bcd60e51b815260206004820152602e60248201527f45524331393637557067726164653a206e657720696d706c656d656e7461746960448201526d6f6e206973206e6f74205555505360901b6064820152608401610372565b6000805160206124a38339815191528114610d4d5760405162461bcd60e51b815260206004820152602960248201527f45524331393637557067726164653a20756e737570706f727465642070726f786044820152681a58589b195555525160ba1b6064820152608401610372565b50610c1c838383611364565b60006000805160206124838339815191528054604051630c3bd06d60e21b8152600481018590529192506001600160a01b0316906330ef41b490602401602060405180830381865afa158015610db3573d6000803e3d6000fd5b505050506040513d601f19601f82011682018060405250810190610dd79190611e60565b610e09578054604051635efddb7d60e01b81526001600160a01b03909116600482015260248101839052604401610372565b506101809190910152565b6033546001600160a01b031633146107145760405162461bcd60e51b815260206004820181905260248201527f4f776e61626c653a2063616c6c6572206973206e6f7420746865206f776e65726044820152606401610372565b603380546001600160a01b038381166001600160a01b0319831681179093556040519116919082907f8be0079c531659141344cd1fd0a4f28419497f9722a3daafe3b4186f6b6457e090600090a35050565b600054610100900460ff16610ee75760405162461bcd60e51b815260040161037290611f97565b610eef611389565b610ef983826113b8565b50606580546001600160a01b0319166001600160a01b039290921691909117905550565b610f6560405180610100016040528060008152602001606081526020016000815260200160008152602001600081526020016000815260200160008152602001600081525090565b606554604051637d5d687f60e01b8152600481018490526000916001600160a01b031690637d5d687f90602401600060405180830381865afa158015610faf573d6000803e3d6000fd5b505050506040513d6000823e601f3d908101601f19168201604052610fd7919081019061214b565b90506000610ff2308360a0015161143990919063ffffffff16565b90508160a001515181106110485760405162461bcd60e51b815260206004820152601e60248201527f566f74696e673a206e6f742077686974656c697374656420766f74696e6700006044820152606401610372565b8160c00151818151811061105e5761105e612267565b6020026020010151806020019051810190611079919061227d565b949350505050565b6040805160178082526103008201909252600091829190602082016102e080368337019050509050809150826020830152836101a0830152653030303030306101c08301526530303030303061026083015265303030303030610280830152653030303030306102a0830152653030303030306102c08301525092915050565b60008060008051602061248383398151915290506000611121845161144e565b6040516020016111319190612335565b60408051601f198184030181528282526001850154885160208a0151938a015192955060009485946001600160a01b0390931693879361117793929091906024016123ac565b60408051601f198184030181529082905291611192916123d5565b60405180910390206001600160e01b0319166020820180516001600160e01b038381831617835250505050876040516020016111cf9291906123f1565b60408051601f19818403018152908290526111e9916123d5565b600060405180830381855afa9150503d8060008114611224576040519150601f19603f3d011682016040523d82523d6000602084013e611229565b606091505b50915091508161124c57604051632d30bdc360e01b815260040160405180910390fd5b808060200190518101906112609190611e60565b9450505050505b92915050565b6000825160000361128057506001611267565b60005b83518110156112be578284828151811061129f5761129f612267565b6020026020010151036112b6576001915050611267565b600101611283565b5060009392505050565b6001600160a01b0381163b6113355760405162461bcd60e51b815260206004820152602d60248201527f455243313936373a206e657720696d706c656d656e746174696f6e206973206e60448201526c1bdd08184818dbdb9d1c9858dd609a1b6064820152608401610372565b6000805160206124a383398151915280546001600160a01b0319166001600160a01b0392909216919091179055565b61136d836114e1565b60008251118061137a5750805b15610c1c576108488383611521565b600054610100900460ff166113b05760405162461bcd60e51b815260040161037290611f97565b610714611546565b600054610100900460ff166113df5760405162461bcd60e51b815260040161037290611f97565b60008051602061248383398151915280546001600160a01b039384166001600160a01b0319918216179091557f3844f6f56a171c93056bdfb3ce2525778ef493f53ef90b0283983867a69d21298054929093169116179055565b6000610a5283836001600160a01b0316611576565b6060600061145b836115d0565b60010190506000816001600160401b0381111561147a5761147a61180b565b6040519080825280601f01601f1916602001820160405280156114a4576020820181803683370190505b5090508181016020015b600019016f181899199a1a9b1b9c1cb0b131b232b360811b600a86061a8153600a85049450846114ae575b509392505050565b6114ea816112c8565b6040516001600160a01b038216907fbc7cd75a20ee27fd9adebab32041f755214dbc6bffa90cc0225b39da2e5c2d3b90600090a250565b6060610a5283836040518060600160405280602781526020016124c3602791396116a8565b600054610100900460ff1661156d5760405162461bcd60e51b815260040161037290611f97565b61071433610e6e565b815160009081905b808210156110795760006115928383611720565b9050848682815181106115a7576115a7612267565b6020026020010151106115bc578091506115ca565b6115c781600161243a565b92505b5061157e565b60008072184f03e93ff9f4daa797ed6e38ed64bf6a1f0160401b831061160f5772184f03e93ff9f4daa797ed6e38ed64bf6a1f0160401b830492506040015b6d04ee2d6d415b85acef8100000000831061163b576d04ee2d6d415b85acef8100000000830492506020015b662386f26fc10000831061165957662386f26fc10000830492506010015b6305f5e1008310611671576305f5e100830492506008015b612710831061168557612710830492506004015b60648310611697576064830492506002015b600a83106112675760010192915050565b6060600080856001600160a01b0316856040516116c591906123d5565b600060405180830381855af49150503d8060008114611700576040519150601f19603f3d011682016040523d82523d6000602084013e611705565b606091505b50915091506117168683838761173b565b9695505050505050565b600061172f600284841861244d565b610a529084841661243a565b606083156117aa5782516000036117a3576001600160a01b0385163b6117a35760405162461bcd60e51b815260206004820152601d60248201527f416464726573733a2063616c6c20746f206e6f6e2d636f6e74726163740000006044820152606401610372565b5081611079565b61107983838151156117bf5781518083602001fd5b8060405162461bcd60e51b8152600401610372919061246f565b6001600160a01b03811681146103f857600080fd5b60006020828403121561180057600080fd5b8135610a52816117d9565b634e487b7160e01b600052604160045260246000fd5b604051606081016001600160401b03811182821017156118435761184361180b565b60405290565b60405160e081016001600160401b03811182821017156118435761184361180b565b60405161010081016001600160401b03811182821017156118435761184361180b565b604051601f8201601f191681016001600160401b03811182821017156118b6576118b661180b565b604052919050565b60006001600160401b038211156118d7576118d761180b565b50601f01601f191660200190565b600082601f8301126118f657600080fd5b8135611909611904826118be565b61188e565b81815284602083860101111561191e57600080fd5b816020850160208301376000918101602001919091529392505050565b6000806040838503121561194e57600080fd5b8235611959816117d9565b915060208301356001600160401b0381111561197457600080fd5b611980858286016118e5565b9150509250929050565b60008060006060848603121561199f57600080fd5b833592506020840135915060408401356001600160401b038111156119c357600080fd5b6119cf868287016118e5565b9150509250925092565b600080600080608085870312156119ef57600080fd5b843593506020850135925060408501356001600160401b03811115611a1357600080fd5b611a1f878288016118e5565b92505060608501356001600160401b03811115611a3b57600080fd5b611a47878288016118e5565b91505092959194509250565b600080600060608486031215611a6857600080fd5b8335611a73816117d9565b92506020840135611a83816117d9565b91506040840135611a93816117d9565b809150509250925092565b600082601f830112611aaf57600080fd5b611ab9604061188e565b806040840185811115611acb57600080fd5b845b81811015611ae5578035845260209384019301611acd565b509095945050505050565b600080600080848603610160811215611b0857600080fd5b853594506020860135935060408601356001600160401b03811115611b2c57600080fd5b611b38888289016118e5565b935050610100605f1982011215611b4e57600080fd5b50611b57611821565b611b648760608801611a9e565b81528660bf870112611b7557600080fd5b6040611b808161188e565b8061012089018a811115611b9357600080fd5b60a08a015b81811015611bb957611baa8c82611a9e565b84526020909301928401611b98565b50816020860152611bca8b82611a9e565b84860152505050508091505092959194509250565b6020808252602c908201527f46756e6374696f6e206d7573742062652063616c6c6564207468726f7567682060408201526b19195b1959d85d1958d85b1b60a21b606082015260800190565b6020808252602c908201527f46756e6374696f6e206d7573742062652063616c6c6564207468726f7567682060408201526b6163746976652070726f787960a01b606082015260800190565b60006001600160401b03821115611c9057611c9061180b565b5060051b60200190565b600082601f830112611cab57600080fd5b8151611cb961190482611c77565b8082825260208201915060208360051b860101925085831115611cdb57600080fd5b602085015b83811015611cf8578051835260209283019201611ce0565b5095945050505050565b600080600083850360a0811215611d1857600080fd5b845160208601519094506001600160401b03811115611d3657600080fd5b611d4287828801611c9a565b9350506060603f1982011215611d5757600080fd5b50611d60611821565b60408581015182526060860151602083015260809095015194810194909452509093909250565b600081518084526020840193506020830160005b82811015611db9578151865260209586019590910190600101611d9b565b5093949350505050565b838152826020820152606060408201526000611de26060830184611d87565b95945050505050565b60005b83811015611e06578181015183820152602001611dee565b50506000910152565b60008151808452611e27816020860160208601611deb565b601f01601f19169290920160200192915050565b604081526000611e4e6040830185611e0f565b8281036020840152611de28185611d87565b600060208284031215611e7257600080fd5b81518015158114610a5257600080fd5b604081526000611e956040830185611d87565b8281036020840152611de28185611e0f565b600060208284031215611eb957600080fd5b5051919050565b634e487b7160e01b600052601160045260246000fd5b8181038181111561126757611267611ec0565b602081526000610a526020830184611d87565b8060005b6002811015610848578151845260209384019390910190600101611f00565b8060005b600281101561084857611f37848351611efc565b6040939093019260209190910190600101611f23565b61012081526000611f62610120830185611d87565b9050611f72602083018451611efc565b6020830151611f846060840182611f1f565b5060408301516114d960e0840182611efc565b6020808252602b908201527f496e697469616c697a61626c653a20636f6e7472616374206973206e6f74206960408201526a6e697469616c697a696e6760a81b606082015260800190565b80516001600160401b0381168114611ff957600080fd5b919050565b600061200c611904846118be565b905082815283838301111561202057600080fd5b610a52836020830184611deb565b600082601f83011261203f57600080fd5b610a5283835160208501611ffe565b600082601f83011261205f57600080fd5b815161206d61190482611c77565b8082825260208201915060208360051b86010192508583111561208f57600080fd5b602085015b83811015611cf85780516120a7816117d9565b835260209283019201612094565b600082601f8301126120c657600080fd5b81516120d461190482611c77565b8082825260208201915060208360051b8601019250858311156120f657600080fd5b602085015b83811015611cf85780516001600160401b0381111561211957600080fd5b8601603f8101881361212a57600080fd5b61213c88602083015160408401611ffe565b845250602092830192016120fb565b60006020828403121561215d57600080fd5b81516001600160401b0381111561217357600080fd5b820160e0818503121561218557600080fd5b61218d611849565b61219682611fe2565b81526121a460208301611fe2565b60208201526040828101519082015260608201516001600160401b038111156121cc57600080fd5b6121d886828501611c9a565b60608301525060808201516001600160401b038111156121f757600080fd5b6122038682850161202e565b60808301525060a08201516001600160401b0381111561222257600080fd5b61222e8682850161204e565b60a08301525060c08201516001600160401b0381111561224d57600080fd5b612259868285016120b5565b60c083015250949350505050565b634e487b7160e01b600052603260045260246000fd5b60006020828403121561228f57600080fd5b81516001600160401b038111156122a557600080fd5b820161010081850312156122b857600080fd5b6122c061186b565b8151815260208201516001600160401b038111156122dd57600080fd5b6122e986828501611c9a565b60208301525060408281015190820152606080830151908201526080808301519082015260a0808301519082015260c0808301519082015260e091820151918101919091529392505050565b7f76657269667950726f6f662875696e743235365b325d2c75696e743235365b3281527f5d5b325d2c75696e743235365b325d2c75696e743235365b0000000000000000602082015260008251612393816038850160208701611deb565b615d2960f01b6038939091019283015250603a01919050565b61010081016123bb8286611efc565b6123c86040830185611f1f565b61107960c0830184611efc565b600082516123e7818460208701611deb565b9190910192915050565b60008351612403818460208801611deb565b8351908301906020850160005b8281101561242e578151845260209384019390910190600101612410565b50919695505050505050565b8082018082111561126757611267611ec0565b60008261246a57634e487b7160e01b600052601260045260246000fd5b500490565b602081526000610a526020830184611e0f56fe3844f6f56a171c93056bdfb3ce2525778ef493f53ef90b0283983867a69d2128360894a13ba1a3210667c828492db98dca3e2076cc3735a920a3ca505d382bbc416464726573733a206c6f772d6c6576656c2064656c65676174652063616c6c206661696c6564a26469706673582212202bde6600b02a9c5bc2b0c133d24fe2e5aba2a303b1fc3c27a126f730a8f09ad264736f6c634300081c0033",
  "linkReferences": {},
  "deployedLinkReferences": {}
}